{
  "contractName": "Etherente",
  "abi": [
    {
      "anonymous": false,
      "inputs": [
        {
          "indexed": false,
          "internalType": "uint256",
          "name": "date",
          "type": "uint256"
        },
        {
          "indexed": true,
          "internalType": "address",
          "name": "from",
          "type": "address"
        },
        {
          "indexed": false,
          "internalType": "uint256",
          "name": "amount",
          "type": "uint256"
        }
      ],
      "name": "NewDeposit",
      "type": "event"
    },
    {
      "constant": true,
      "inputs": [
        {
          "internalType": "uint256",
          "name": "",
          "type": "uint256"
        }
      ],
      "name": "balances",
      "outputs": [
        {
          "internalType": "uint256",
          "name": "date",
          "type": "uint256"
        },
        {
          "internalType": "address",
          "name": "from",
          "type": "address"
        },
        {
          "internalType": "uint256",
          "name": "amount",
          "type": "uint256"
        }
      ],
      "payable": false,
      "stateMutability": "view",
      "type": "function"
    },
    {
      "constant": true,
      "inputs": [],
      "name": "depositCount",
      "outputs": [
        {
          "internalType": "uint256",
          "name": "",
          "type": "uint256"
        }
      ],
      "payable": false,
      "stateMutability": "view",
      "type": "function"
    },
    {
      "constant": false,
      "inputs": [],
      "name": "invest",
      "outputs": [],
      "payable": true,
      "stateMutability": "payable",
      "type": "function"
    },
    {
      "constant": true,
      "inputs": [],
      "name": "balanceSum",
      "outputs": [
        {
          "internalType": "uint256",
          "name": "",
          "type": "uint256"
        }
      ],
      "payable": false,
      "stateMutability": "view",
      "type": "function"
    },
    {
      "constant": false,
      "inputs": [],
      "name": "kill",
      "outputs": [],
      "payable": false,
      "stateMutability": "nonpayable",
      "type": "function"
    }
  ],
  "bytecode": "0x6080604052600080546001600160a01b0319163317815560025534801561002557600080fd5b50610235806100356000396000f3fe60806040526004361061004a5760003560e01c80632dfdf0b51461004f57806341c0e1b5146100765780634903b0d11461008d5780637b91527a146100dd578063e8b5e51f146100f2575b600080fd5b34801561005b57600080fd5b506100646100fa565b60408051918252519081900360200190f35b34801561008257600080fd5b5061008b610100565b005b34801561009957600080fd5b506100b7600480360360208110156100b057600080fd5b503561011a565b604080519384526001600160a01b03909216602084015282820152519081900360600190f35b3480156100e957600080fd5b50610064610146565b61008b61014a565b60025481565b6000546001600160a01b0316331461011757600080fd5b33ff5b60016020819052600091825260409091208054918101546002909101546001600160a01b039091169083565b4790565b66b1a2bc2ec5000034101561015e57600080fd5b60028054600190810180835560408051606081018252428082523360208084018281523485870181815260009889528984529787902095518655905197850180546001600160a01b0319166001600160a01b03909916989098179097559451929096019190915581519081529182019290925281517fe6d83b1e0e5126a0574d0154ed77e40181534edcb74f035b158d92ed3d10a030929181900390910190a256fea265627a7a72315820f28c2ec1e217d33cd376d974ed95e67c28846f3f393a79e266e531fbf0eb0ddd64736f6c63430005100032",
  "source": "// SPDX-License-Identifier: MIT\npragma solidity ^0.5.16;\n\ncontract Etherente {\n\n    address owner = msg.sender;\n    ///register the owner's address\n\n    struct Deposit {\n        uint date;\n        address from;\n        uint amount;\n    }\n    /// keep track of the transfers\n    mapping(uint => Deposit) public balances; \n\n    uint public depositCount = 0; \n    event NewDeposit (\n            uint date,\n            address indexed from,\n            uint amount\n            );\n    ///invest in the smart contract\n    function invest() external payable {\n        if(msg.value < 50 finney){\n            revert();\n        }\n        depositCount++;\n        balances[depositCount]= Deposit (now, msg.sender,msg.value);\n        emit NewDeposit(now, msg.sender,msg.value);\n    }\n    function balanceSum() external view returns(uint) {\n        return address(this).balance;\n    }\n\n    /// destroy the contract and reclaim the leftover funds.\n    function kill() public {\n        require(msg.sender == owner);\n        selfdestruct(msg.sender);\n    }\n}\n",
  "sourcePath": "/Users/selim/Documents/8.Coding/2.Projects/1.EtheREstate/back_end/blockchain/contracts/Etherente.sol",
  "compiler": {
    "name": "solc",
    "version": "0.5.16+commit.9c3226ce.Emscripten.clang"
  },
  "schemaVersion": "3.1.0",
  "updatedAt": "2021-01-21T18:23:08.791Z",
  "networkType": "ethereum",
  "devdoc": {
    "methods": {}
  },
  "userdoc": {
    "methods": {
      "invest()": {
        "notice": "invest in the smart contract"
      },
      "kill()": {
        "notice": "destroy the contract and reclaim the leftover funds."
      }
    }
  }
}